:10000000A7C0A5C4CAC0C9C0C8C030C4C6C0C5C086
:10001000C4C0C3C0C2C0C1C0C1C4BFC0BEC0000054
:10002000000036000000000037000000000038002B
:10003000020202020202020202020102040810206D
:100040002004100801020000040000000000005E0F
:10005000BCE2613FDD83C29C7E20A3FD1F419DC3A6
:10006000217FFCA2401E5F01E3BD3E6082DC237D58
:100070009FC1421CFEA0E1BF5D0380DE3C62BEE08A
:10008000025CDF81633D7C22C09E1D43A1FF4618B8
:10009000FAA427799BC584DA3866E5BB5907DB8566
:1000A0006739BAE406581947A5FB7826C49A653B18
:1000B000D987045AB8E6A7F91B45C6987A24F8A64A
:1000C000441A99C7257B3A6486D85B05E7B98CD278
:1000D000306EEDB3510F4E10F2AC2F7193CD114F26
:1000E000ADF3702ECC92D38D6F31B2EC0E50AFF1D8
:1000F000134DCE90722C6D33D18F0C52B0EE326C0A
:100100008ED0530DEFB1F0AE4C1291CF2D73CA9437
:100110007628ABF517490856B4EA6937D58B5709E5
:10012000EBB536688AD495CB2977F4AA4816E9B797
:10013000550B88D6346A2B7597C94A14F6A8742AC9
:10014000C896154BA9F7B6E80A54D7896B356207EC
:1001500011241FBECFE5D2E0DEBFCDBF10E0A0E688
:10016000B0E0ECEFF8E102C005900D92AE36B107B9
:10017000D9F721E0AEE6B0E001C01D92A230B2078F
:10018000E1F710E0C8EAD0E003C02197FE0123D7D1
:10019000C73AD107D1F71AD4AFCB32CF83FD02C013
:1001A00098E001C098E28770892B98E10FB6F89427
:1001B000A89591BD0FBE81BDA89581B5806481BD14
:1001C000379885B7877E806185BF85B7806285BF98
:1001D000889585B78F7D85BF0FB6F894A89581B5B2
:1001E000886181BD11BC0FBE379A81B58F7B81BDFF
:1001F000089580917D0090917E00019690937E00FD
:1002000080937D000895089590E0FC01EC5BFF4F22
:100210003491FC01E65CFF4F2491FC01E05DFF4F4F
:10022000E491EE2339F1332399F0323071F028F460
:10023000313071F48AB58F770AC0333011F0343021
:1002400039F48CB58F7D8CBD03C08AB58F7D8ABD96
:10025000F0E0EE0FFF1FE65DFF4FA591B4918FB761
:10026000F894EC91611103C020952E2301C02E2B30
:100270002C938FBF0895CF93DF9390E0FC01E65C51
:10028000FF4F2491FC01E05DFF4F8491882361F1D1
:1002900090E0880F991FFC01EC5DFF4FC591D49150
:1002A000FC01E65DFF4FA591B491611109C09FB7B4
:1002B000F8948881209582238883EC912E230BC0AB
:1002C000623061F49FB7F8943881822F8095832340
:1002D0008883EC912E2B2C939FBF06C08FB7F89488
:1002E000E8812E2B28838FBFDF91CF910895833033
:1002F000910528F0880F991F04970197F1F7089549
:1003000061E083E081DF8FEC93E0F1DF60E083E088
:100310007BDF8AEA95E0EBCF61E083E075DF8AEF6F
:1003200090E0E5DF60E083E06FDF8AEA95E0DFCF11
:100330003FB7F8948091770090917800A091790070
:10034000B0917A0022B708B601FE05C02F3F19F020
:100350000196A11DB11D3FBFBA2FA92F982F882745
:10036000820F911DA11DB11DBC01CD0143E0660F9F
:10037000771F881F991F4A95D1F708958F929F92F2
:10038000AF92BF92CF92DF92EF92FF926B017C010E
:10039000CFDF4B015C01C114D104E104F104E9F0A9
:1003A000C7DFDC01CB0188199909AA09BB09883E7E
:1003B0009340A105B10578F321E0C21AD108E10804
:1003C000F10888EE880E83E0981EA11CB11CC114B0
:1003D000D104E104F10421F7DECFFF90EF90DF902C
:1003E000CF90BF90AF909F908F90089561E084E090
:1003F00042DF61E084E008DF64E670E080E090E0E6
:10040000BDDF60E084E000DF64E670E080E090E063
:10041000B5CFFC0190810180F281E02DF8948181BB
:10042000892B81832281892F809528232283A2E032
:10043000B0E01197F1F7218182238183A0E1B0E040
:100440001197F1F780817894E6E6F0E03197F1F7C3
:10045000982381E009F480E00895FC0190810180F7
:10046000F281E02D892F809560FF12C0F8942281DF
:10047000822382838181892B8183A0E1B0E011975F
:10048000F1F78281982B928378948AE690E011C0EC
:10049000F8942281822382838181892B8183AEE734
:1004A000B0E01197F1F78281982B9283789486E0DF
:1004B00090E00197F1F70895CF92DF92EF92FF92CB
:1004C0000F931F93CF93DF931F92CDB7DEB76C01CD
:1004D000E62E08E010E0FF24F39461E08F2D8E21DA
:1004E00009F460E0C6014983B8DFFF0C015011092F
:1004F00049810115110589F7411115C0F894D601FC
:100500001196ED91FC91129791818C9180958923A0
:1005100081831196ED91FC91129792818C91809537
:100520008923828378940F90DF91CF911F910F914F
:10053000FF90EF90DF90CF900895CF92DF92EF92EF
:10054000FF920F931F93CF93DF931F92CDB7DEB728
:100550008C01F62E40E065E57983AEDFCF2C798102
:10056000D72E760188E0E80EF11CF60161916F014B
:1005700040E0C801A1DFCE14DF04B9F70F90DF918E
:10058000CF911F910F91FF90EF90DF90CF90089542
:10059000CF93DF93EC0183FF02C0BEDE01C0B0DE6B
:1005A000C2FF02C0B9DE01C0ABDEC1FF02C0B4DED3
:1005B00001C0A6DEC0FF02C0AFDE01C0A1DEDF9336
:1005C000CF938AE690E09F938F9389EA90E09F9380
:1005D0008F93C1D60F900F900F900F900F900F90A8
:1005E000DF91CF910895CF93DF931092A8001092DE
:1005F000A7008AE090E09093A6008093A5008091E8
:100600000101A82FA695A695A695B0E0B093A200EB
:10061000A093A100877090E060919D0070919E0072
:1006200040919B0050919C00E0919900F0919A00BC
:100630009D01280F391F260F371F240F351F2E0F3E
:100640003F1F260F371F240F351F2170332730938C
:10065000960020939500880F991F820F931F909307
:10066000A00080939F002091A3003091A400265FFA
:100670003F4FA20FB31F8A0F9B1F860F971F840F38
:10068000951F8E0F9F1F680F791F460F571F4F70C2
:1006900055275093980040939700C3E0D0E0809195
:1006A000A7009091A80074DF8091A5009091A6000A
:1006B0006FDF8091A3009091A4006ADF8091A10078
:1006C0009091A20065DF80919F009091A00060DF73
:1006D00080919D0090919E005BDF80919B009091A6
:1006E0009C0056DF8091990090919A0051DF809193
:1006F0009D0090919E004CDF80919B0090919C000A
:1007000047DF809197009091980042DF64E170E0AC
:1007100080E090E033DE219711F6DF91CF910895CC
:10072000CF92DF92EF92FF92CF93DF93C090FD00C4
:10073000D090FE00E090FF00F0900001C701B601EC
:10074000B8D4CAE0D0E0CB01BE01E0D370939E00E4
:1007500060939D0090939C0080939B0020E030E08C
:1007600040E251E4C701B60163D5A3D4CB01BE0179
:10077000CDD390939A00809399008EE090E090936F
:10078000A4008093A300DF91CF91FF90EF90DF90C2
:10079000CF9029CFCF92DF92EF92FF92CF93DF934A
:1007A000C090F900D090FA00E090FB00F090FC00BF
:1007B000C701B6017ED4CAE0D0E0CB01BE01A6D30A
:1007C0009B012B5F3F4F30939E0020939D009093A1
:1007D0009C0080939B0020E030E040E251E4C701A0
:1007E000B60126D566D4CB01BE0190D390939A0072
:1007F000809399001092A4001092A300DF91CF91F2
:10080000FF90EF90DF90CF90EECEFC0190810180C1
:10081000F281E02DF8948181292F20958223818314
:1008200078948DE7815009F130813923D9F3F89418
:100830008281822382838181892B81837894ACEBAE
:10084000B3E01197F1F7F894818128232183A8E878
:10085000B0E01197F1F78081982381E009F080E002
:100860007894E0E3F3E03197F1F708951F920F9247
:100870000FB60F9211242F933F938F939F93AF93B3
:10088000BF938091730090917400A0917500B09116
:1008900076003091720026E0230F2D3720F4029667
:1008A000A11DB11D05C029E8230F0396A11DB11D8F
:1008B000209372008093730090937400A09375004E
:1008C000B09376008091770090917800A0917900A4
:1008D000B0917A000196A11DB11D8093770090938D
:1008E0007800A0937900B0937A00BF91AF919F9167
:1008F0008F913F912F910F900FBE0F901F901895E1
:100900001F920F920FB60F9211242F933F934F9384
:100910005F936F937F938F939F93AF93BF93EF9367
:10092000FF93E0916200F09163000995FF91EF91D0
:10093000BF91AF919F918F917F916F915F914F91F7
:100940003F912F910F900FBE0F901F9018951F92FF
:100950000F920FB60F9211242F933F934F935F93F3
:100960006F937F938F939F93AF93BF93EF93FF9377
:10097000E0916000F09161000995FF91EF91BF91C6
:10098000AF919F918F917F916F915F914F913F9127
:100990002F910F900FBE0F901F9018951F920F92DE
:1009A0000FB60F9211248F930FB6F894A89581B5C6
:1009B000886181BD11BC0FBEA89581B58F7B81BDBB
:1009C0008F910F900FBE0F901F901895CF93DF93CC
:1009D000CDB7DEB7A5970FB6F894DEBF0FBECDBF7B
:1009E00078948AB582608ABD8AB581608ABD83B7F2
:1009F000826083BF83B7816083BF89B7826089BF0C
:100A000080B7826080BF80B7816080BF329A319AA0
:100A10003098379A8CB580648CBD61E083E02BDC24
:100A200061E080E028DC61E080E0EEDB61E081E015
:100A300022DC60E081E0E8DB86E68093010161E092
:100A400083E019DC61E084E016DCD0DCCFDCCEDCB6
:100A500060ED77E080E090E091DCCE0104966C01DF
:100A60005E019BE1A90EB11CE7E0EA0DEBA34E018C
:100A7000FFE08F0E911C89E0880D8CA361E080E07F
:100A8000FADB61E083E0F7DB80B58E7F80BD64EF49
:100A900071E080E090E072DC61E084E0B5DB8CE046
:100AA00087B962E070E080E090E068DC369A3699C1
:100AB000FECF24B185B130E0382B032E000C440B5F
:100AC000550B64EB7BE281E190E033D220939100FF
:100AD000309392004093930050939400CA01B9015F
:100AE0001BD320E030E04AE754E47BD22B013C01E9
:100AF00060E082E0C0DB61E081E0BDDB61E081E0DD
:100B000083DB68EE73E080E090E038DC10927E00DA
:100B100010927D0089EF90E09093610080936000D7
:100B200085B78C7F826085BF8BB780648BBF62EA9C
:100B300070E080E090E022DC20917D0030917E002A
:100B400010927E0010927D0080917B0090917C003D
:100B5000820F931F8217930711F0969587959093B4
:100B60007C0080937B0060E081E04EDB8BB78F7B65
:100B70008BBF83E091E0909361008093600060E020
:100B800082E079DB60917B0070917C0080E090E0F6
:100B9000C1D260938D0070938E0080938F009093EC
:100BA00090008EE0EFE7F0E0DE01119601900D92EB
:100BB0008A95E1F78E858111EEC0CE01019625DE82
:100BC000882309F4E8C040E060EFCE01019674DCB0
:100BD00001E0F12CE12C11E0CE0101961ADC682F26
:100BE000CE0101966DA315DC6DA1613019F4813041
:100BF000B1F432C02F2D30E068131AC08C8518175D
:100C000038F4F601E20FF31F8081802341F402C023
:100C1000181729F060E0193050F41D8708C0F6015C
:100C2000EF0DF11D8081802B808361E009C0E12EF2
:100C3000F601E20FF31F9081802F80958923808336
:100C4000CE0101960ADC1F5F000F11F4F39401E05E
:100C500097E09F1508F0C0CF113408F49CC0EC86D3
:100C6000E11002C081E08E878C81882309F493C053
:100C7000D601CE018396F5012D912193E817F9074E
:100C8000D9F7D501E0E0FBA1FA1739F08D91E827FB
:100C9000F0E0E25BFF4FE491F6CF8AA1E81389C050
:100CA0008B8D823239F0883229F0803109F081C091
:100CB00011E001C010E0CE010196A7DDB501CE0123
:100CC00001963BDC41E064E4CE010196F5DB68EE81
:100CD00073E080E090E052DBCE01019696DDB50135
:100CE000CE0101962ADC40E06EEBCE010196E4DBFA
:100CF000740128E0222E312C41E000E0CE01019663
:100D00004DA387DB4DA18111042B440F81E0281AEC
:100D10003108A1F7F70101937F01FCA1FE11E9CF92
:100D2000688970E0762F66278F85682B112389F0FC
:100D300083E0660F771F8A95E1F78E898031A9F4E9
:100D40002D898CE090E0821B9109607F680F791FEC
:100D50000CC08B89807611F4687F07C0803211F453
:100D60006C7F03C0803409F46E7F072E000C880B63
:100D7000990BD2D120E030E040E85DE359D27B010D
:100D80008C019B01AC01BFD28823C1F09DEC8CEC9F
:100D900007EC12EC15C01C861E861D86FE013C96D3
:100DA0001292EC15FD05E1F76AEF70E080E090E04B
:100DB000E5DA9DEC8CEC04E411E402C09E2D8F2D4D
:100DC00026E620930101492F582FB8014093F900DE
:100DD0005093FA006093FB007093FC00DBDC68EE3C
:100DE00073E080E090E0CADA60918D0070918E002F
:100DF00080918F009091900020E030E048EC52E428
:100E0000F0D06093FD007093FE008093FF009093FC
:100E1000000186DC68EE73E080E090E0AFDA87E600
:100E20008093010160918D0070918E0080918F0000
:100E30009091900020E030E04AE754E4D2D06093F3
:100E4000F9007093FA008093FB009093FC00A2DC01
:100E500068EE73E080E090E091DA4092FD005092FD
:100E6000FE006092FF00709200015ADC68EE73E0B1
:100E700080E090E083DA60E084E0C6D960E080E062
:100E8000FAD960E083E0F7D980B5816080BD89E060
:100E900085D989E083D989E081D988E07FD987E045
:100EA0007DD989E07BD989E079D989E077D988E053
:100EB00075D987E073D980E090E0892B09F4DECD05
:100EC0009FD8DCCD60E080E0D6D9EAE3F0E0E491A1
:100ED000E0937F00E0E3F0E0E491F0E0EE0FFF1F2D
:100EE000E25EFF4F85919491909381008093800002
:100EF00010928A0010928C0010928B00EAE8F0E0C9
:100F0000129280E0E238F807D9F7089597FB072E90
:100F100016F4009406D077FD08D027D007FC05D042
:100F20003EF4909581959F4F0895709561957F4F00
:100F30000895052E97FB16F400940FD057FD05D0A9
:100F400028D007FC02D046F408C050954095309553
:100F500021953F4F4F4F5F4F089590958095709525
:100F600061957F4F8F4F9F4F0895AA1BBB1B51E187
:100F700007C0AA1FBB1FA617B70710F0A61BB70B09
:100F8000881F991F5A95A9F780959095BC01CD01AE
:100F90000895A1E21A2EAA1BBB1BFD010DC0AA1FBA
:100FA000BB1FEE1FFF1FA217B307E407F50720F0D2
:100FB000A21BB30BE40BF50B661F771F881F991F4D
:100FC0001A9469F760957095809590959B01AC0196
:100FD000BD01CF010895EE0FFF1F0590F491E02DA4
:100FE00009940CD0EBC0E3D040F0DAD030F021F41B
:100FF0005F3F19F0CCC0511115C1CFC0F0D098F3AC
:101000009923C9F35523B1F3951B550BBB27AA2789
:1010100062177307840738F09F5F5F4F220F331FFB
:10102000441FAA1FA9F333D00E2E3AF0E0E830D0C7
:1010300091505040E695001CCAF729D0FE2F27D0CA
:10104000660F771F881FBB1F261737074807AB0798
:10105000B0E809F0BB0B802DBF01FF2793585F4F0D
:101060002AF09E3F510568F092C0DCC05F3FECF370
:10107000983EDCF3869577956795B795F7959F5FD2
:10108000C9F7880F911D9695879597F90895E1E026
:10109000660F771F881FBB1F621773078407BA0785
:1010A00020F0621B730B840BBA0BEE1F88F7E095E0
:1010B000089504D06894B111B5C0089598D088F00F
:1010C0009F5790F0B92F9927B751A0F0D1F0660F34
:1010D000771F881F991F1AF0BA95C9F712C0B1304F
:1010E00081F09FD0B1E008959CC0672F782F8827AA
:1010F000B85F39F0B93FCCF3869577956795B3958E
:10110000D9F73EF490958095709561957F4F8F4FFC
:101110009F4F0895E89409C097FB3EF49095809501
:10112000709561957F4F8F4F9F4F9923A9F0F92FAD
:1011300096E9BB279395F695879577956795B7952B
:10114000F111F8CFFAF4BB0F11F460FF1BC06F5F11
:101150007F4F8F4F9F4F16C0882311F096E911C023
:10116000772321F09EE8872F762F05C0662371F044
:1011700096E8862F70E060E02AF09A95660F771F58
:10118000881FDAF7880F9695879597F9089597F94C
:101190009F6780E870E060E008959FEF80EC08951D
:1011A00000240A9416161706180609060895002446
:1011B0000A9412161306140605060895092E0394C0
:1011C000000C11F4882352F0BB0F40F4BF2B11F434
:1011D00060FF04C06F5F7F4F8F4F9F4F089557FD93
:1011E0009058440F551F59F05F3F71F04795880F95
:1011F00097FB991F61F09F3F79F08795089512162C
:1012000013061406551FF2CF4695F1DF08C01616D7
:1012100017061806991FF1CF869571056105089488
:101220000895E894BB2766277727CB0197F908959F
:101230000AD0C4CFB5DF28F0BADF18F0952309F043
:10124000A6CFABCFEFCFCBDFA8F39923D9F35523AC
:10125000C9F3950F50E0551FAA27EE27FF27BB279C
:1012600000240894679520F4E20FF31FB41F0A1EB0
:10127000220F331F441FAA1F6695A9F7779530F4F4
:10128000F30FB41F0A1E121E08F46395330F441F98
:10129000AA1F221F769599F7879520F4B40F0A1E8E
:1012A000121E631F440FAA1F221F331F8695A9F722
:1012B000862F712D602D11249F5750408AF0E1F048
:1012C00088234AF0EE0FFF1FBB1F661F771F881F82
:1012D00091505040A9F79E3F510570F058CFA2CFD2
:1012E0005F3FECF3983EDCF3869577956795B7956D
:1012F000F795E7959F5FC1F7FE2B880F911D969597
:10130000879597F9089503D0880B990B0895990F45
:101310000008550FAA0BE0E8FEEF16161706E807BF
:10132000F907C0F012161306E407F50798F0621BE0
:10133000730B840B950B39F40A2661F0232B242BB5
:10134000252B21F408950A2609F4A140A6958FEFD4
:10135000811D811D0895AEE0B0E0E0EBF9E0A3C28D
:101360000D891E8986E08C831A8309838FEF9FE79E
:101370009E838D83AE01475E5F4F6F89788DCE016E
:10138000019609D02F813885F801E20FF31F1082F2
:101390002E96E4E0A4C2ACE0B0E0E0EDF9E075C266
:1013A0007C016B018A01FC0117821682838181FF17
:1013B000B0C1CE0101964C01F7019381F60193FD76
:1013C000859193FF81916F01882309F49EC1853235
:1013D00039F493FD859193FF81916F01853221F45A
:1013E000B70190E0B1D1E8CF512C312C20E0203270
:1013F000A0F48B3269F030F4803259F0833269F412
:1014000020612CC08D3239F0803339F4216026C040
:101410002260246023C0286021C027FD27C030ED52
:10142000380F3A3078F426FF06C0852D6AE024D2C2
:10143000582E530E13C0832D6AE01ED2382E330E61
:1014400020620CC08E3221F426FD5FC1206406C0EC
:101450008C3611F4206802C0883641F4F60193FD01
:10146000859193FF81916F018111C1CF982F9F7D4D
:101470009554933028F40C5F1F4FFFE3F9830DC0A0
:10148000833631F0833771F0833509F057C021C0BE
:10149000F801808189830E5F1F4F44244394512CAF
:1014A000540114C03801F2E06F0E711CF801A080E5
:1014B000B18026FF03C0652D70E002C06FEF7FEFA3
:1014C000C5012C8736D12C0183012C852F77222E44
:1014D00016C03801F2E06F0E711CF801A080B180D7
:1014E00026FF03C0652D70E002C06FEF7FEFC501DE
:1014F0002C8714D12C012C852068222E830123FCFB
:1015000019C0832D90E048165906A0F4B70180E277
:1015100090E01AD13A94F5CFF50127FC859127FE8A
:1015200081915F01B70190E00FD131103A94F1E061
:101530004F1A51084114510479F7DEC0843611F076
:10154000893631F5F80127FF07C0608171818281FA
:1015500093810C5F1F4F08C060817181072E000CC2
:10156000880B990B0E5F1F4F2F76722E97FF09C0C5
:1015700090958095709561957F4F8F4F9F4F206814
:10158000722E2AE030E0A40117D1A82EA81843C07B
:10159000853729F42F7EB22E2AE030E025C0F22FC5
:1015A000F97FBF2E8F36C1F018F4883579F0ADC0C1
:1015B000803719F0883721F0A8C02F2F2061B22E74
:1015C000B4FE0DC08B2D8460B82E09C024FF0AC064
:1015D0009F2F9660B92E06C028E030E005C020E1BC
:1015E00030E002C020E132E0F801B7FE07C06081C0
:1015F0007181828193810C5F1F4F06C06081718170
:1016000080E090E00E5F1F4FA401D6D0A82EA8184E
:10161000FB2DFF777F2E76FE0BC0372D3E7FA51466
:1016200050F474FE0AC072FC08C0372D3E7E05C01F
:10163000BA2C372D03C0BA2C01C0B52C34FF0DC015
:10164000FE01EA0DF11D8081803311F4397E09C05D
:1016500032FF06C0B394B39404C0832F867809F098
:10166000B39433FD12C030FF06C05A2CB31418F4E3
:10167000530C5B18B32CB31460F4B70180E290E014
:101680003C8762D0B3943C85F6CFB31410F43B187A
:1016900001C0312C34FF11C0B70180E390E03C87DA
:1016A00053D03C8532FF16C031FD03C088E790E07F
:1016B00002C088E590E0B7010CC0832F867851F016
:1016C00031FF02C08BE201C080E237FD8DE2B7013D
:1016D00090E03AD0A51430F4B70180E390E034D024
:1016E0005A94F8CFAA94F401EA0DF11D8081B70154
:1016F00090E02AD0A110F6CF332009F45DCEB701D7
:1017000080E290E021D03A94F7CFF701868197816B
:1017100002C08FEF9FEF2C96E2E1D3C0FC01059051
:10172000615070400110D8F7809590958E0F9F1FE3
:101730000895FC016150704001900110D8F7809528
:1017400090958E0F9F1F08950F931F93CF93DF9354
:10175000FB01238121FD03C08FEF9FEF28C022FFF3
:1017600016C046815781248135814217530744F4BE
:10177000A081B1819D012F5F3F4F318320838C93E6
:10178000268137812F5F3F4F3783268310C0EB01BF
:10179000092F182F0084F185E02D0995892BE1F69A
:1017A0008E819F8101969F838E83812F902FDF9161
:1017B000CF911F910F910895FA01AA27283061F166
:1017C000203191F1E8946F936E7F6E5F7F4F8F4F62
:1017D0009F4FAF4FB1E040D0B4E03ED0670F781FCD
:1017E000891F9A1FA11D680F791F8A1F911DA11DB6
:1017F0006A0F711D811D911DA11D22D009F46894ED
:101800003F91062E000C3019000C000C3019305D91
:101810003193CEF6CF010895462F4770405D419336
:10182000B3E00FD0C9F7F6CF462F4F70405D4A3373
:1018300018F0495D31FD4052419302D0A9F7EACF3B
:10184000B4E0A6959795879577956795BA95C9F76A
:1018500000976105710508959B01AC010A2E06945D
:101860005795479537952795BA95C9F7620F731F16
:10187000841F951FA01D0895002480FD060E660F8D
:1018800011F08695D1F7802D08952F923F924F92B7
:101890005F926F927F928F929F92AF92BF92CF9200
:1018A000DF92EF92FF920F931F93CF93DF93CDB709
:1018B000DEB7CA1BDB0B0FB6F894DEBF0FBECDBF81
:1018C00009942A88398848885F846E847D848C8452
:1018D0009B84AA84B984C884DF80EE80FD800C815B
:1018E0001B81AA81B981CE0FD11D0FB6F894DEBF3E
:0C18F0000FBECDBFED010895F894FFCFAE
:0E18FC000301030100000201800025780000B6
:00000001FF
